:100000000C9434000C9451000C9451000C94510049
:100010000C9451000C9451000C9451000C9451001C
:100020000C9451000C9451000C9451000C9451000C
:100030000C9451000C9451000C9451000C945100FC
:100040000C9451000C9451000C9451000C945100EC
:100050000C9451000C9451000C9451000C945100DC
:100060000C9451000C94510011241FBECFEFD8E026
:10007000DEBFCDBF11E0A0E0B1E0E6E2FAE002C0F1
:1000800005900D92A031B107D9F711E0A0E1B1E0E0
:1000900001C01D92A131B107E1F70E94E2010C9469
:1000A00011050C940000FC0180818860808381E050
:1000B00090E00197F1F78081877F808308952BB1CD
:1000C000982F9C7F922B9BB92BB1982F93609223F2
:1000D0009BB948B190E0880F991F9C012670332787
:1000E000422B48B928B1896F9F6F282328B90895FA
:1000F000EF92FF921F93CF93DF931F92CDB7DEB79E
:10010000182F842F5798E12EF92EF70120812061B6
:10011000208320812F7D20830000F701208128602B
:1001200020830000000039B1F7012081277F208360
:1001300020812F7E208337FDE6CF579A2081262B02
:10014000208320911001222329F099830E945F00CF
:10015000998101C08BB9812F0E945300F7018081E2
:100160008F7C80830F90DF91CF911F91FF90EF9054
:1001700008950F931F93CF93DF9381FF0AC09AB125
:100180009C6F9AB997B1966097B991E090931001DE
:1001900006C09FEF9AB91092C1001092100180FF23
:1001A00009C084B1886384B985B1877C85B985E24B
:1001B00090E008C087B1886387B988B1877C88B927
:1001C00088E290E0909301018093000180911001FA
:1001D000882321F080E30E945F0002C080E38BB996
:1001E000C0910001D0910101CE010E94530080EA2C
:1001F00091E40197F1F7CE010E94530000E213E071
:10020000C8010197F1F7CE010E945300C801019780
:10021000F1F748E360E0CE010E94780048E060E03A
:10022000CE010E94780041E060E0CE010E9478009B
:1002300046E060E0CE010E9478004CE060E0CE0134
:100240000E94780010920201DF91CF911F910F91CF
:10025000089541E060E080910001909101010C94CB
:100260007800CF92DF92EF92FF920F931F93CF937C
:10027000DF938C01E0900001F090010140E860E024
:10028000C7010E947800E801680180E1C80ED11C16
:1002900008C060E2C7010E9478008E01CC15DD0520
:1002A00031F08E014991442311F04A3091F7F80161
:1002B00080818823C9F08A3011F40F5F1F4F40EC12
:1002C00060E0C7010E947800E801005F1F4F07C08F
:1002D00060E2C7010E947800C017D10729F0499158
:1002E000442311F04A30A1F7DF91CF911F910F9174
:1002F000FF90EF90DF90CF900895CF93DF93C82FBA
:100300002091020127FD55C080528F3508F580915C
:10031000000190910101203129F440EC60E00E943D
:1003200078000AC0222311F0203234F040E860E067
:100330000E947800109202014C2F60E2809100012F
:10034000909101010E947800809102018F5F05C0A9
:10035000CA3031F4203144F480E1809302012CC092
:10036000CC3029F40E9429011092020125C0C83026
:1003700019F5222309F121502093020180910001F7
:10038000909101012F3011F44FE801C040E160E08D
:100390000E947800C0910001D091010140E260E22A
:1003A000CE010E94780040E160E0CE010E9478001A
:1003B00003C02FEF3FEF02C020E030E0C901DF9122
:1003C000CF910895CF93DF93CDB7DEB7C755D1094D
:1003D0000FB6F894DEBF0FBECDBF80E090E00E9464
:1003E000B900CE018F5A9F4F27E0E9E0F1E0DC0130
:1003F00001900D922A95E1F7E12CF12C182F092F8D
:1004000083E0A82E81E0B82ECC24C394D12CCC0E4E
:10041000DD1E0E942901FF92EF920F931F93BF925E
:10042000AF92DF92CF920E942A02C6010E94310150
:100430002FEF83ED90E3215080409040E1F700C022
:1004400000002FEFE21AF20A0FB6F894DEBF0FBEDB
:10045000CDBFDFCFEF92FF92CF93DF93CDB7DEB763
:100460002E970FB6F894DEBF0FBECDBFED88FE8885
:1004700086E08C83FA82E9828FEF9FE79E838D83EB
:10048000CE014996AC016F89788DCE0101960E940C
:100490005902EF81F885EE0DFF1D10822E960FB6E2
:1004A000F894DEBF0FBECDBFDF91CF91FF90EF90EC
:1004B0000895ACE0B0E0EFE5F2E00C94DA046C01F2
:1004C0005B017A01FC0117821682838181FFC1C121
:1004D00066246394712C6C0E7D1EF6019381F501E8
:1004E00093FD859193FF81915F01882309F4ADC14C
:1004F000853239F493FD859193FF81915F018532B7
:1005000029F4B60190E00E944604E7CF512C10E098
:1005100020E02032A8F48B3261F028F4803251F0D0
:10052000833271F40BC08D3239F0803349F421608D
:1005300028C02260246025C0286023C0206121C01B
:1005400027FD27C0382F30533A3078F426FF06C0F5
:10055000FAE05F9E300D1124532E13C04AE0149F21
:10056000300D1124132F20620CC08E3221F426FD91
:100570006CC1206406C08C3611F4206802C0883635
:1005800041F4F50193FD859193FF81915F01811104
:10059000C0CF982F9554933018F09052933030F488
:1005A000F4E0EF0EF11C4FE349830EC0833631F0C7
:1005B000833779F0833509F05DC023C0F70180816E
:1005C000898342E0E40EF11C44244394512C4301FE
:1005D00015C0170152E0250E311CF7018080918073
:1005E00026FF03C0652D70E002C06FEF7FEFC401EE
:1005F0002C870E943B042C0171012C85022F0F7760
:1006000017C01701F2E02F0E311CF7018080918096
:1006100026FF03C0652D70E002C06FEF7FEFC401BD
:100620002C870E9430042C012C85022F0068710158
:1006300003FD1CC006C0B60180E290E00E944604A3
:100640001150812F90E048165906A8F30FC0F4010D
:1006500007FD859107FF81914F01B60190E00E944F
:10066000460411111150F1E04F1A51084114510480
:1006700071F7E8C0843611F0893651F5F70127FF8C
:1006800007C0608171818281938144E050E008C09D
:1006900060817181882777FD8095982F42E050E036
:1006A000E40EF51E3FE6432E422297FF09C09095C7
:1006B0008095709561957F4F8F4F9F4F50E8452AE9
:1006C0002AE030E0A3010E947C04882E861840C0F6
:1006D000022F853721F40F7E2AE030E01FC0097F0A
:1006E0008F36A1F020F4883509F0AFC00BC08037F9
:1006F00021F0883709F0A9C001C0006104FF09C0DA
:10070000046007C024FF08C0066006C028E030E08F
:1007100005C020E130E002C020E132E0F70107FF30
:1007200007C0608171818281938144E050E006C0FE
:100730006081718180E090E042E050E0E40EF51EBF
:10074000A3010E947C04882E86188FE7482E402241
:1007500046FE0BC0042D0E7F851450F444FE0AC0E3
:1007600042FC08C0042D0E7E05C0982C042D03C049
:10077000982C01C0952C04FF0DC0FE01E80DF11D61
:100780008081803311F4097E09C002FF06C0939472
:10079000939404C0802F867809F0939403FD12C0CF
:1007A00000FF0DC0582C911650F4510E5918912E7F
:1007B00006C0B60180E290E00E9446049394911630
:1007C000C0F304C0911610F4191901C010E004FF21
:1007D00010C0B60180E390E00E94460402FF1EC0F4
:1007E00001FF03C088E590E002C088E790E0B60111
:1007F0000CC0802F867891F001FD02C080E201C01C
:100800008BE207FD8DE2B60190E00E94460406C02F
:10081000B60180E390E00E9446045A948514C0F328
:100820008A94F301E80DF11DB601808190E00E94E9
:1008300046048110F5CF06C0B60180E290E00E9428
:10084000460411501111F8CF48CEF60126813781A8
:1008500002C02FEF3FEFC9012C96E2E10C94F604A1
:10086000FC010590615070400110D8F7809590957B
:100870008E0F9F1F0895FC01615070400190011080
:10088000D8F7809590958E0F9F1F0895CF92DF9295
:10089000EF92FF926C017B01DB0113968C9181FD3D
:1008A00004C0CC24CA94DC2C21C082FF10C0FB0100
:1008B0002681378184819581281739078CF401902E
:1008C000F081E02DC192DB01ED93FC9309C0DB01C7
:1008D0001896ED91FC9119978C2D0995892B09F7A4
:1008E000F70186819781019697838683C601FF90E1
:1008F000EF90DF90CF900895FA01AA27283051F1A8
:10090000203181F1E8946F936E7F6E5F7F4F8F4F40
:100910009F4FAF4FB1E03ED0B4E03CD0670F781F9F
:10092000891F9A1FA11D680F791F8A1F911DA11D84
:100930006A0F711D811D911DA11D20D009F46894BD
:100940003F912AE0269F11243019305D3193DEF665
:10095000CF010895462F4770405D4193B3E00FD01B
:10096000C9F7F6CF462F4F70405D4A3318F0495D06
:1009700031FD4052419302D0A9F7EACFB4E0A695E9
:100980009795879577956795BA95C9F7009761050B
:10099000710508959B01AC010A2E06945795479561
:1009A00037952795BA95C9F7620F731F841F951F56
:1009B000A01D08952F923F924F925F926F927F9267
:1009C0008F929F92AF92BF92CF92DF92EF92FF925F
:1009D0000F931F93CF93DF93CDB7DEB7CA1BDB0B0B
:1009E0000FB6F894DEBF0FBECDBF09942A883988B0
:1009F00048885F846E847D848C849B84AA84B984B7
:100A0000C884DF80EE80FD800C811B81AA81B981C2
:100A1000CE0FD11D0FB6F894DEBF0FBECDBFED01D6
:060A20000895F894FFCFD9
:100A26002800FF2573202569004E554D424552008A
:00000001FF
